S0520000433A5C55736572735C4A61795A685C323730305F47524F55505C325F355F7363726F6C6C696E675C62696E5C50726F6A6563742E61627348435331325F53657269616C5F4D6F6E69746F722E6162734A
S11510003F305B4F666DFF070B0D0E00000000010001C0
S1234000CF400010EF86FFC6005A037A025A7A026A7B02687B0258CE1000CD100BB6100FD5
S123402081042504860420163435E6006B4002090430F772100F313008721011203D34358B
S1234040F610117B1010E6006B40020973101027030430F2CE1006C6077B10108100270334
S12340600430E33130E600C1FF270608721011200ACE1000C6017B1011200034CE02E804DB
S1234080250330209534CE100BCD100786050420033020EBE6407B0258E6005B013637CCAB
S11140A00FA007063332080220E40434FD3D6D
S105FFFE4000BD
S9030000FC
